:020000040000fa
:080000000001040000000000f3
:020000040000fa
:100200000f8b200000ff200000018800000000008c
:100210000a00070011000700000020000000e000b5
:100220000200320000000200000000001e10020068
:10023000000000000040da000000fe004440a90079
:10024000400020000000e000030032000000200019
:10025000a00188004440a80000000600601e2100a4
:10026000010020001500370062004000e0804800d7
:10027000910188009001ba0062004000e0804800cf
:10028000910188009002ba0062004000e0804800be
:100290000002eb006028e10004003a000059eb0086
:1002a0008301e900fdff3e00040037006128e10002
:1002b000010032000082eb00050007009101880078
:1002c0001001ba000200e000e7ff3a00000005005c
:1002d000910188008002780062004000e0804800c0
:1002e0003559ba008301e900080032002559ba00e7
:1002f0008301e900050032000400e000f4ff320051
:1003000015d9ba008301e900f1ff3a0000000600a8
:10031000889fbe008a9fbe00010578000100e000b2
:100320000400350008003c000000e000200032001e
:100330000500370060001000e080180002003b005c
:1003400001f02c001a0037000004be006011b80054
:100350006b0920000982cf00020039000882cf001b
:100360000441b000694252000e00320008003b0018
:1003700082817100610164008904d1000884d30086
:100380008b05e8000442e800f9ff3a000500370059
:100390000804440089844c008b05e9000442e9000c
:1003a000fbff3a00590107000af0a70001f0a00086
:1003b0004f05be004f04be000000060003f0a2007f
:1003c000889fbe008a9fbe008c1f780075010700c1
:1003d0007c0133006450e1004f0032006420e100f2
:1003e0005200320003826c0007003b000905d00078
:1003f0000306d000820f54000c065d000200390095
:1004000002003200890178000306780085825500d9
:1004100004003d000003fd008103fd008502ea00a9
:100420008b854200840f720002003b0060001000c8
:10043000e08018006011b8000005eb007a28e100a8
:100440000a00390006007800c75ddd00f707b2003a
:10045000878075002d003700828171000a017800c5
:10046000610560008180d1000080d3008502e90031
:10047000f9ff3b00060440008784480002003b006f
:1004800060041400e0841c000988a3000700320007
:100490008a81710082817100610164008904d10048
:1004a0000884d3008b05e800170037000978a30003
:1004b00013003a000b00e000130034008b05e90044
:1004c0000804440089844c000a4474000978a3009d
:1004d0000d003a000b00e000070034008b05e90036
:1004e0000804440089844c0001003a000b002000fd
:1004f0000978a300f7ff32000001eb00020037008b
:10050000828171000a017800000107000cf0a70049
:1005100001f0a000340137006420e10002003a003d
:10052000838f6c00340133000801be000200be005e
:100530002d013700889fbe008a9fbe008c1f780067
:10054000180107001f01330003866c006450e100ae
:10055000240032006420e100270032006150e100f5
:10056000220032006120e100210032008b85420030
:10057000eb07b1000134b800003ab80008044200ab
:1005800089844a00013ab8000030b80088804000f1
:1005900009014a0004003300000040008180480047
:1005a000020149008b05e900c909dd0083017000e3
:1005b0000100320013002000c814de004814dd00e2
:1005c0004709de001200b200c808de00088470008f
:1005d000ce00070001f0a1000cf0a70001f0a00080
:1005e000010137006120e100030132000801be0073
:1005f0000200be00f7ff37006150e100fcff3a0047
:10060000fd003700889fbe008a9fbe008c1f7800c7
:10061000e4000700eb00330003866c006450e10047
:100620002e0032006420e100330032006150e1000e
:100630002f0032006120e100310032008585550035
:10064000eb07b00009002000080420000500370077
:100650000804440089844c000a003100060343006a
:1006600087834b000001530081815b00f8ff33005a
:100670000203be000800a0000804440089844c0066
:10068000f6ff3900c639dd00830173000100320036
:10069000130020008904d1000884d3000998a30026
:1006a000050032000800a7000300a0008904d10063
:1006b0000884d3008b05e8008904d1000884d300a6
:1006c0000001eb000281d2009000070001f0a100c0
:1006d0000cf0a70001f0a000c30037006420e10087
:1006e000c50032000801be000200be00f7ff37005f
:1006f0006120e100c00032006000b800f3ff370065
:100700000000200001f82700f0ff3700140020004f
:10071000bc003700889fbe008a9fbe000004be0058
:10072000d30007000800be006420e1000700390084
:1007300002003a00f1ff2700f0ff2f000160a00047
:1007400012022000724588004c00370001f0a10021
:1007500002802000935c2400ecff07000800be002c
:1007600004003500b2fd200093042400d5000700ea
:100770000004be0032982f0023f223006dff070013
:100780000200200003f0230001f0a70003f0a00006
:100790000bff07003c000700801f7800dcfe07000d
:1007a00001f0a2000005be000200200093fc23001f
:1007b00060ff07000801be0001ff0700809fbe0028
:1007c0000a00be0022a22a00d39f230059ff07007f
:1007d0004f01be00fafe07000004be0001f0a100b8
:1007e0000200200003982300b800070003003d002a
:1007f0000000200001f82300180037000800be00a8
:100800000001be004bff07000005be00823b230035
:1008100043dc2b0047ff07000801be0045ff07002f
:100820000801be00e6fe07000004be000a00be008c
:1008300052372300f3c123003eff0700f27a2b005a
:10084000b3ed2b00defe07000a01be0039ff0700f2
:100850000200200003f82300d9fe07004f00a60085
:10086000030037000801be0003f0a20002003700b9
:100870000001be000800be0062ff07004f05be0079
:100880004f04be00000006000001be007800070013
:100890000470a70003f0a1006509b1001600320042
:1008a0000d0035006828e10006003500f0ff2f003c
:1008b000f1ff27000300e00013003b0001002800c7
:1008c0000000050000004000818048008502e9002a
:1008d000fcff3a0008003700f88f420002003c009d
:1008e0008000eb00000005008100d1000080d300f3
:1008f0008502e800fcff3a000300e00002003b0034
:1009000060001000e0801800000006008100200058
:10091000618055000b003d000b00200061fe2f00a0
:100920000100e1001d00340082817100610164005a
:100930008904d1000884d3000000e800faff3a00df
:10094000710020006100640003007000020060007c
:100950000900320061044400e0844c000988a500cd
:10096000050032008b05e8006808e10002003a004b
:100970008904d1000884d300f20f20000258e1005e
:1009800005003d00c75ddd00f907b20089807500f4
:1009900008007800000006000bf827008b007800a4
:1009a000000005000004be00310007000003be0087
:1009b0000405be000200be002d000700844f750034
:1009c000000006000200be006450e1000500360091
:1009d0006420e100020036000968a30001003a002b
:1009e0000800be000160a0004f0678004f05be0061
:1009f0004f04be0000000600f0ff2f00f1ff2700ab
:100a0000f9ff3700889fbe008a9fbe00841f7800d0
:100a1000e4ff07004f00780011003300f0ff2f00c3
:100a2000838f6c0006003b00040565000a00a700e8
:100a30000800370009f0a600100020000800370069
:100a4000820f5400838f5c000300390010002000e7
:100a500001003e000000200009f0a7000000ea00ad
:100a60004f05be004f04be000000e000000006007d
:100a7000c70ade00f107b200f50fb200080032002d
:100a8000e1cf4200020032000170a0002400050006
:100a9000810f7000010032000408050044000500c9
:100aa000810f700002003a00140005008502e90081
:100ab0000000400081c04800fcff3b000170a00026
:100ac000240005000400200002003700f4ff2f007e
:100ad000ccff3700889fbe008a9fbe008c1f780025
:100ae0004f26dd00afff0700b6ff33006120e100b5
:100af000430032006250e10041003e003e003900f8
:100b00006420e1003c003200058255000f003b00ec
:100b10000402e80038003a00800f5300818f5b0028
:100b2000350034000800be0003f0a10001f0a6006b
:100b300003f0a0000cf0a70021fe0700aaff370079
:100b40000603430087834b000c4646000005530014
:100b500081855b00020033000a03be000c00a00088
:100b60000402e900f6ff3b00850578000602430019
:100b700087824b0004003a006000b80009f0a7002b
:100b800001f0a00098ff37000002520081825a0055
:100b90000704e000040033000603430087834b0092
:100ba0008b05e900faff3700090578000604be004e
:100bb0000203be006011b80054ff0700e00f5200ae
:100bc000e08f5a000700350002003c000c08a3002b
:100bd000040032000601be0003f0a0000cf0a700e4
:100be000f7fd07000a85680001f0a1000af0a700e0
:100bf00001f0a0007cff37000800be007aff37003c
:100c0000100220000cf0a600704588007aff370023
:100c10000000fa000fc2bf000004a2000000fb00a9
:100c2000610060000080fa00000006000200fa0087
:100c3000000f78000cc2bf0066406000e64f500015
:100c400003003a001e00780080108800030037007f
:100c5000f00f20001e006000801088000080fa0065
:100c6000000006000200fa00000f78008520a900ad
:100c70008540a9001e007800674060006740600062
:100c800067406000674060004401dd00810920008a
:100c900091407800f0c8b30000c0600002407000ce
:100ca00098e0b700000720001e0060004400de004e
:100cb0006740600067416000910920009140780022
:100cc00080cfb30000c060000240700099e0b70020
:100cd0009e007800688060004300de006140600094
:100ce0006140600000414000d10820009140780040
:100cf000d0cfb30000c06000024070008de0b700ac
:100d0000000820001e0060004700de006140600017
:100d1000614060004201dd00d10820009140780070
:100d2000b0cfb30000c06000024070008de0b7009b
:100d30000080fa00000006008400a900e74160007e
:100d4000410920009140780082cfb30082c060004a
:100d500083c070008000fd0094e0b7008000fd00bb
:100d6000700160004411de002108200091407800ed
:100d7000e3cfb30083c0600082c070008000fd003c
:100d800082e0b7008000fd00680060004300de00e4
:100d9000c10820009140780083c0600080c07000ce
:100da000010078008ce0b7000000060086e0a90092
:100db000e7416000c419dd00f1092000914078008e
:100dc000f2c8b30082c0600083c070008000fd00e4
:100dd0009fe0b7008000fd00700160004411de005c
:100de0004211dd0021082000914078000124a1007b
:100df00082c070008000fd0082e0b7008000fd002e
:100e0000680060004300de004700dd00e1082000cc
:100e1000914078000174a10080c07000010078004a
:100e20008ee0b700000006000cc2bf006640600004
:100e3000e64f500002003a009010800000000600cb
:100e400090108000f00fb200000006000ec2bf003c
:100e50006100600000000600000888000000060035
:100e60008460a900e7416000c419dd005109200039
:100e700091407800f2c8b30082c0600083c0700067
:100e80008000fd0095e0b7008000fd006800600074
:100e90004300de004300dd00c108200091407800df
:100ea0000134a10080c07000010078008ce0b70020
:100eb000000006000021ef001108880020088800cb
:100ec0000000060084c0a900e7416000710920000d
:100ed0009140780082cfb30082c0600083c0700070
:100ee0008000fd0097e0b7008000fd006800600012
:100ef0004300de004600dd00c1082000914078007c
:100f00000164a10080c07000010078008ce0b7008f
:100f10000000060030088800000006000621ef00ef
:100f200061088800800888001061a90000000600a0
:100f300084e0a900e7416000c419dd0071092000c8
:100f400091407800f2c8b30082c0600083c0700096
:100f50008000fd0097e0b7008000fd0068006000a1
:100f60004300de004700dd00c1082000914078000a
:100f70000174a10080c07000010078008ce0b7000f
:100f80000000060050088800000006000a21ef005b
:100f900071088800900888000000060086a0a9005b
:100fa000e7416000c419dd00e109200091407800ac
:100fb000f2c8b30082c0600083c070008000fd00f2
:100fc0009ee0b7008000fd00680060004300de0086
:100fd0004500dd00e1082000914078000154a100a7
:100fe00080c07000010078008ee0b70000000600ad
:100ff000a0088800000006001421ef00d108880036
:10100000f00888001e61a900000006008ec0a9003b
:10101000e7416000f10920009140780082cfb300e1
:1010200082c0600083c070008000fd009fe0b700b8
:101030008000fd00680060004300de004600dd0027
:10104000e1082000914078000164a10080c0700098
:10105000010078008ee0b70000000600c00888009c
:10106000000006001821ef00e10888000009880050
:041070000000060076
:020000040000fa
:0200000401f009
:04000000f5ff000008
:020000040000fa
:0200000401f009
:04000400ff7f00007a
:020000040000fa
:10000800fc110000fc110000fc110000fc110000b4
:10001800fc110000fc110000fc110000fc110000a4
:100028000a0a0000fc110000fc110000520900003f
:10003800fc110000fc110000b20a0000fc110000d5
:10004800fc110000c00900007e090000fc1100003e
:10005800fc110000fc110000fc110000fc11000064
:10006800fc110000fc110000fc110000fc11000054
:10007800fc110000fc110000fc110000fc11000044
:10008800260a0000fc110000fc110000fc11000011
:10009800fc110000fc110000fc110000fc11000024
:1000a800fc110000fc110000fc110000fc11000014
:1000b800fc110000fc110000fc110000fc11000004
:1000c800fc110000fc110000fc110000fc110000f4
:1000d800fc110000fc110000fc110000fc110000e4
:1000e800fc110000fc110000fc110000fc110000d4
:0800f800fc110000fc110000e6
:020000040000fa
:10010800fc110000fc110000fc110000fc110000b3
:10011800fc110000fc110000fc110000fc110000a3
:100128000a0a0000fc110000fc110000520900003e
:10013800fc110000fc110000b20a0000fc110000d4
:10014800fc110000c00900007e090000fc1100003d
:10015800fc110000fc110000fc110000fc11000063
:10016800fc110000fc110000fc110000fc11000053
:10017800fc110000fc110000fc110000fc11000043
:10018800260a0000fc110000fc110000fc11000010
:10019800fc110000fc110000fc110000fc11000023
:1001a800fc110000fc110000fc110000fc11000013
:1001b800fc110000fc110000fc110000fc11000003
:1001c800fc110000fc110000fc110000fc110000f3
:1001d800fc110000fc110000fc110000fc110000e3
:1001e800fc110000fc110000fc110000fc110000d3
:0801f800fc110000fc110000e5
:020000040000fa
:0810740035fa00008e3c00007b
:020000040000fa
:10107c000000fa00a8e2a800c6e2a900d242a9002a
:10108c00d882a900d8a2a900dec2a900d862a90002
:10109c00dea2a800de22a8000080eb00401588002c
:1010ac00b90407009e0407000000eb00c042880052
:1010bc000000eb00d04288000040eb0080e8b70055
:1010cc00d0fe2f0019ff0700c0fe2f0034ff0700d1
:1010dc0063040700cae2a800dc62a9000040eb0030
:1010ec00aae8b7000000eb00704388007043800052
:1010fc006043880060438000504388005043800068
:10110c0040438800404380003043880030438000d7
:10111c00204388000e22a900bafe07000004e0005c
:10112c00fdff3a00010037003cff070044ff0700b9
:10113c000000e000fcff3a000e22a900dc82a900ae
:10114c00dca2a900e2c2a900d642a900401f2000df
:10115c005e000700dc82a800dca2a800e2c2a800a6
:10116c00d642a800401f200058000700dc82a900ce
:10117c00dca2a900e2c2a900d642a900401f2000af
:10118c0052000700dc82a800dca2a800e2c2a80082
:10119c00d642a80081e0a8000040eb0084e8b7002c
:1011ac0084c8bf0083e8b70083c8bf0082e8b700db
:1011bc000000eb000043880000438000f0428800f0
:1011cc00f0428000e04288000040eb0081e8b7006c
:1011dc000000eb00104388000040eb0087e8b700ec
:1011ec0087c8bf0086e8b70086c8bf0085e8b7008f
:1011fc000040eb008ae8b7008ac8bf0089e8b70056
:10120c0089c8bf0088e8b7000040eb008de8b70044
:10121c008dc8bf008ce8b7008cc8bf008be8b70046
:10122c006000b800f044880001458800f04480005c
:10123c0001458000d0448800e1448800d0448000ff
:10124c00e1448000b0448800c1448800b044800070
:10125c00c144800090448800a144880090448000e0
:10126c00a144800070448800814488006000b8006c
:10127c00304588004145880030458000414580005c
:10128c0010458800214588000040eb0085e8b70038
:10129c000080fa0000000600801f78003400f8007f
:1012ac0000c0b300a00188000000fa008460a9000f
:1012bc00c04280000000e800c04288000080fa00b4
:1012cc003400f9004f007800004006000200fa00dc
:1012dc00000f78000000eb00b0428800b0428000a4
:1012ec009e0f5000fdff36000080fa000000060043
:1012fc00809fbe003400f80000c0b300a00188003d
:10130c000000fa008540a90039c8bf000004e000c5
:10131c001400320039c8bf000040e90039e8b700ba
:10132c0038c8bf008080fb00008020000080400097
:10133c00104078000000fb008010880038c8bf0007
:10134c000040e80038e8b700818320009140780025
:10135c0070c3b30080cf500002003a000040eb0095
:10136c0038e8b7000080fa003400f9004f00be00e6
:10137c0000400600809fbe003400f80000c0b3009f
:10138c00a00188000000fa008520a90090108000c0
:10139c00ace8b700acc8bf0054e8b70048c8bf0001
:1013ac0049e8b70047c8bf0048e8b700acc8bf0061
:1013bc0047e8b700718420009140780030c5b30035
:1013cc0080cf50000c003a008184200091407800be
:1013dc0030c5b30080cf500007003a009184200044
:1013ec009140780030c5b30080cf500002003a0025
:1013fc0010c0b300aae8b7000080fa003400f9006e
:10140c004f00be0000400600801f78003400f8003a
:10141c0000c0b300a00188000000fa008400a900fd
:10142c00c0428000d042880010c0b30080e8b700f2
:10143c000080fa003400f9004f00780000400600ec
:10144c00809fbe003400f80000c0b300a0018800eb
:10145c000200fa008700a900e0108000ade8b70098
:10146c00adc8bf000080fb00000f780070072000a3
:10147c009e007800808f500009003200b00d2000d3
:10148c009e007800808f500008003200500520002c
:10149c009e007800808f5000070032000800370053
:1014ac0010c0b30083e8b7000500370010c0b300cc
:1014bc0084e8b7000200370010c0b30082e8b70020
:1014cc000080fa003400f9004f00be000040060016
:1014dc000200fa00004f78009183200091407800c0
:1014ec0070c3b30080cf5000fbff32000fc2bf00af
:1014fc00624060000004e0001300320037c8bf00f7
:10150c008080fb0000802000008040001e48780096
:10151c0037c8bf000040e80037e8b70071832000ef
:10152c009140780070c3b30080cf500002003a00a5
:10153c000040eb0037e8b70039c8bf000040e800b6
:10154c0039e8b700020037001e00fb00801088004d
:10155c000080fa0000000600801f78003400f800bc
:10156c0000c0b300a00188000000fa000000eb00ee
:10157c003008880084c0a900b04280000000e80058
:10158c00b04288000080fa003400f9004f00780067
:10159c00004006000800fa00008fbe001e00be00ce
:1015ac0020079800310798002e009000be00900094
:1015bc00e00f5000e08f580006003d002e00900018
:1015cc00be00900060001000e0801800200798001a
:1015dc00310798002e009000be0090000080fa00a9
:1015ec00000006000000fa0086fd07000004e00081
:1015fc00fdff3a00d000200089fd070081fd0700a7
:10160c000004e000fdff3a00a000200084fd07006c
:10161c000080fa00000006000800fa00300798006d
:10162c0078fd07000004e000fdff3a003e0090004a
:10163c0001002000d7ff0700300798003e00900003
:10164c00a2002000110009000280d8008000fd00db
:10165c00004f78003e009000a2002000110009000d
:10166c000280d800300798003e009000a2002000b5
:10167c00110009000280d8008000fd00104798007e
:10168c003e009000a2002000110009000280d8004a
:10169c00300798003e009000a200200011000900c5
:1016ac000280d8008000fd00204798003e0090008a
:1016bc00a2002000110009000280d8003007980019
:1016cc003e009000a2002000110009000280d8000a
:1016dc008000fd00304798003e009000a2002000e2
:1016ec00110009000280d800300798003e009000dd
:1016fc00a2002000110009000280d8008000fd002b
:10170c00404798003e009000a20020001100090004
:10171c000280d800300798003afd07000004e00072
:10172c00fdff3a004e4090000043b00068ff0700f8
:10173c0034fd07000004e000fdff3a003e4090003d
:10174c000043b00062ff07002efd07000004e0001c
:10175c00fdff3a002e4090000043b0005cff0700f4
:10176c0028fd07000004e000fdff3a001e40900039
:10177c000043b00056ff070022fd07000004e00004
:10178c00fdff3a001e4078000043b00050ff0700f8
:10179c000080fa00000006000800fa0020079800fc
:1017ac00310798002e009000100798001e00900042
:1017bc008040780000c0eb0000c06000104798002b
:1017cc001e0090004880de00100798001e0090005c
:1017dc00004f78001e4078003dff07001e4090002f
:1017ec003bff07000080fa00000006000000fa0032
:1017fc000e22a90092fd07000000e000fdff320060
:10180c0086fd07000080fb000080fa000000060047
:10181c000000fa0082c8bf000004e000090032009a
:10182c000040eb0082e8b700dc82a900c0428000d7
:10183c0050438800504380002043880010c0b30000
:10184c008be8b70083c8bf000004e0000900320039
:10185c000040eb0083e8b700dca2a900c042800086
:10186c0060438800604380003043880010c0b300a0
:10187c008ce8b70084c8bf000004e0000900320007
:10188c000040eb0084e8b700e2c2a900c04280002f
:10189c0070438800704380004043880010c0b30040
:1018ac008de8b7000080fa00000006000000fa0086
:1018bc000040eb0084e8b70084c8bf0083e8b700a1
:1018cc0083c8bf0082e8b7000040eb0080e8b70097
:1018dc000080fa00000006000000fa008bc8bf0070
:1018ec00e14f500006003a00c6fc07000004e0007f
:1018fc00fdff3a0010032000c9fc0700050037006b
:10190c00c0fc07000004e000fdff3a00500320007b
:10191c00c3fc07008cc8bf00e14f500006003a0022
:10192c00b8fc07000004e000fdff3a002003200093
:10193c00bbfc070005003700b2fc07000004e00008
:10194c00fdff3a0060032000b5fc07008dc8bf0006
:10195c00e14f500006003a00aafc07000004e0002a
:10196c00fdff3a0030032000adfc070005003700f6
:10197c00a4fc07000004e000fdff3a007003200007
:10198c00a7fc070000022000a5fc070000022000b5
:10199c00a3fc07000080fa00000006003000fa00eb
:1019ac00881f7800584380006140b90055fa070041
:1019bc0060179800711798000800e00007003d00c0
:1019cc0002002000037824006e109000fe1090009e
:1019dc0078fa070060179800711798002843800068
:1019ec006140b90047fa070040179800511798005a
:1019fc000800e00007003d000200200003782400ee
:101a0c004e109000de1090006afa07004017980004
:101a1c00511798004e119000de1190006e1090003e
:101a2c00fe10900063fa07000200200043332400ec
:101a3c00bdfa07002017980031179800d842800093
:101a4c006140b9002ffa0700001798001117980091
:101a5c000800e00007003d0002002000037824008d
:101a6c000e1090009e10900052fa0700001798007c
:101a7c00111798000e1190009e1190002e109000de
:101a8c00be109000dcfa0700b0448800c144880006
:101a9c00684380006140b9001afa0700600f980093
:101aac00710f98000800e00007003d0002002000c4
:101abc00037824006e089000fe0890003dfa0700a1
:101acc00600f9800710f9800384380006140b90096
:101adc000cfa0700400f9800510f98000800e00026
:101aec0007003d0002002000037824004e089000ff
:101afc00de0890002ffa0700400f9800510f980055
:101b0c004e099000de0990006e089000fe089000cf
:101b1c0028fa0700020020004333240082fa070051
:101b2c00200f9800310f9800d84280006140b90016
:101b3c00f4f90700000f9800110f98000800e0005e
:101b4c0007003d0002002000037824000e089000de
:101b5c009e08900017fa0700000f9800110f9800cc
:101b6c000e0990009e0990002e089000be0890006f
:101b7c00a1fa0700d0448800e14488007843800033
:101b8c006140b900dff90700600798007107980001
:101b9c000800e00007003d0002002000037824004c
:101bac006e009000fe00900002fa0700600798009b
:101bbc0071079800484380006140b900d1f90700d3
:101bcc0040079800510798000800e00007003d000e
:101bdc0002002000037824004e009000de009000ec
:101bec00f4f9070040079800510798004e01900047
:101bfc00de0190006e009000fe009000edf90700f1
:101c0c00020020004333240047fa07002007980005
:101c1c0031079800d84280006140b900b9f907003b
:101c2c00008fbe000800e00005003d00020020000f
:101c3c00037824001e00be00def90700008fbe00f2
:101c4c001e01be002e009000be0090006afa070034
:101c5c00f044880001458800d0448000e1448000b5
:101c6c00b2448000c3448000d1f90700704488005e
:101c7c008144880070448000814480006011b80069
:101c8c009ffa07000000e000010035000700370054
:101c9c00704480008144800002002000433b2400fb
:101cac00c4f907007044880081448800b044800067
:101cbc00c1448000f244800003458000bcf9070059
:101ccc0090448800a144880090448000a144800086
:101cdc006011b8008afa07000000e000010035002e
:101cec000700370090448000a144800002002000cf
:101cfc00433b2400aff9070090448800a1448800be
:101d0c004f0478000080fa00000006002800fa005a
:101d1c00889fbe008a9fbe00600f9800710f9800cc
:101d2c00021798001317980024179800351798007d
:101d3c006000b800200f9800310f98002e0890001a
:101d4c00be089000400f9800510f9800d0418400bd
:101d5c00e14184006e099000fe099000f2f9070041
:101d6c0069fa0700400f9800510f9800d041840089
:101d7c00e14184000e1190009e119000eaf90700d9
:101d8c0061fa0700200f9800310f98004e0990005f
:101d9c00de09900000002800b14b2c0016fa070059
:101dac00020024003340240082f9070060079800e9
:101dbc00710798004e099000de0990000000240085
:101dcc00314024000cfa070002002800b34b240019
:101ddc0078f9070020079800310798002e09900029
:101dec00be09900000002800b14b240002fa070045
:101dfc0002002400334024006df9070040079800ce
:101e0c00510798002e099000be0990000000240094
:101e1c0031402400f8f9070002002800b34b2400dd
:101e2c0064f90700008fbe002e019000be019000e7
:101e3c001e00be005ef90700400f9800510f98007d
:101e4c004e019000de0190006e009000fe009000ac
:101e5c0057f90700200f9800310f98001e01be00a3
:101e6c006e009000fe009000aff907000004be0069
:101e7c002e019000be0190004e009000de009000fc
:101e8c00a9f907000001be000800be0048f90700d0
:101e9c000001be0047f907000005be004e09900086
:101eac00de0990004e089000de0890009ef90700b5
:101ebc000004be002e099000be0990002e08900070
:101ecc00be08900098f907000001be000800be0093
:101edc0038f907000001be000a00be00c6f9070071
:101eec00000f9800110f98000e0990009e099000a9
:101efc004e089000de0890008bf90700400f980008
:101f0c00510f98000e0990009e0990002e08900029
:101f1c00be08900084f90700200f9800310f98003c
:101f2c004e089000de08900054fa07002e11900025
:101f3c000089be002e089000be0890004ffa0700e2
:101f4c003e1190000089be004f05be004f04be003c
:101f5c000080fa00000006000000fa008bc8bf00e9
:101f6c00e14f500006003a008cc8bf00e14f500012
:101f7c0003003a008dc8bf00e14f50000d00320045
:101f8c0080c5b30052fd070000c0eb0050fd0700f8
:101f9c0000c0eb004efd070090c5b3004cfd0700e0
:101fac0000c0eb004afd070000c0eb0048fd070035
:101fbc001d00370080c5b30045fd07005000200010
:101fcc00c2fc07001245800023458000a041200080
:101fdc00010020000200400083804800104588006a
:101fec002145880010458000214580008afd0700ae
:101ffc0000c2b30036fd070000c2b30034fd070079
:10200c0050002000b1fc070090c5b30030fd070064
:10201c0050002000adfc0700304580004145800099
:10202c007dfd07006ffd07000080fa000000060030
:10203c000000fa000efc0700aac8bf000004e00074
:10204c00fdff3200dc62a8007900070001003700b8
:10205c00effd070080c8bf000004e000fcff320069
:10206c0005e1a9000000eb0078fb07000000eb0085
:10207c00c04288000dfe07008bc8bf00e14f500026
:10208c0038003a008cc8bf00e14f500035003a00d0
:10209c008dc8bf00e14f500032003a003ffe0700f0
:1020ac0092448000a34480007044800081448000ee
:1020bc00658a2000248a200014ff07001245800046
:1020cc0023458000a04120000100200002004000b8
:1020dc008380480010458800214588001245800007
:1020ec002345800070bb200001002000800f5100b0
:1020fc00818f59001b003c00104580002145800059
:10210c00e00f5000e08f580016003400304580007e
:10211c0041458000e00f5000e08f58001100340062
:10212c003245800043458000309c20000100200097
:10213c00800f5100818f59000a003c0080c5b3000c
:10214c00e3fc0700104580002145800092fd07004c
:10215c0090c5b300defc070030458000414580008f
:10216c008dfd07000040eb008de8b7008dc8bf0067
:10217c008ce8b7008cc8bf008be8b7000000eb0000
:10218c007043880070438000604388006043800087
:10219c0050438800504380004043880040438000f7
:1021ac0030438800304380002043880005e1a800bc
:1021bc0080c8bf000004e000fdff32000000eb000f
:1021cc00c0428800b9fd0700e2c2a800e2c2bf000d
:1021dc000080fb004600de00614060006140600052
:1021ec004501dd00c12d200091407800f0cdb300f9
:1021fc0000c0600002407000dce2b700dcc2bf002f
:10220c000080fb004500de00614060006140600022
:10221c004401dd00c12d200091407800f0ceb300c8
:10222c0000c0600002407000dce2b70089ff37009c
:10223c000200fa00c0032000000f7800c0ff2f003e
:10224c0004fb07000000eb0000fb07009e00780079
:10225c0090f82d0014fb07000080fa000000060027
:10226c000200fa0000772100000f7800a0ff2f0079
:10227c0011fb07000000eb0023fb07009e00780019
:10228c00d0f82d0022fb07000080fa0000000600a9
:10229c000200fa0000772100000f7800d0ff2f0019
:1022ac0020fb07000000eb0033fb07009e007800ca
:1022bc00d0f82d0032fb07000080fa000000060069
:1022cc000200fa00401f2000000f7800a0ff2f0032
:1022dc002ffb07000000eb0042fb07009e0078007c
:1022ec00d0f82d0041fb07000080fa00000006002a
:1022fc000200fa0050c32000000f780090ff2f005e
:10230c003ffb07000000eb0051fb07009e0078002c
:10231c00d0fb2d0050fb07000080fa0000000600e7
:10232c000000fa00f0012000f01088008f00a800d7
:10233c00c1108000c0ff2f0000806000c01088001a
:10234c0017e2a8001942a8000080fa00000006005d
:10235c000200fa00000f780016c2bf006640600051
:10236c00e64f500003003a001e007800d0108800a1
:10237c0003003700f00f20001e006000d010880012
:10238c000080fa00000006000000fa007000200037
:10239c00a01088000d42a8008d20a8008d40a80038
:1023ac0071108000c0ff2f0000806000701088004a
:1023bc000de2a8000f42a8000080fa000000060001
:020000040000fa
:1023cc00ac08000002000000020000000000000049
:1023dc0000080000ac00000000000000ae08000087
:0c23ec00020000000000000000000000e3
:020000040000fa
:0423f8000000fe00e3
:00000001FF
