:020000040000fa
:080000000001040000000000f3
:020000040000fa
:100008009401000094010000940100009401000094
:100018009401000094010000940100009401000084
:10002800140f00009401000094010000ca0d0000a4
:1000380094010000940100000810000094010000e1
:10004800940100004e0e0000e40d00009401000031
:100058009401000094010000940100009401000044
:100068009401000094010000940100009401000034
:100078009401000094010000940100009401000024
:10008800320f000094010000940100009401000068
:100098009401000094010000940100009401000004
:1000a80094010000940100009401000094010000f4
:1000b80094010000940100009401000094010000e4
:1000c80094010000940100009401000094010000d4
:1000d80094010000940100009401000094010000c4
:1000e80094010000940100009401000094010000b4
:0800f8009401000094010000d6
:020000040000fa
:100108009401000094010000940100009401000093
:100118009401000094010000940100009401000083
:10012800140f00009401000094010000ca0d0000a3
:1001380094010000940100000810000094010000e0
:10014800940100004e0e0000e40d00009401000030
:100158009401000094010000940100009401000043
:100168009401000094010000940100009401000033
:100178009401000094010000940100009401000023
:10018800320f000094010000940100009401000067
:100198009401000094010000940100009401000003
:1001a80094010000940100009401000094010000f3
:1001b80094010000940100009401000094010000e3
:1001c80094010000940100009401000094010000d3
:1001d80094010000940100009401000094010000c3
:1001e80094010000940100009401000094010000b3
:0801f8009401000094010000d5
:020000040000fa
:100200006f8c20000eff20000e018800000000000f
:1002100000012000200288000c000700c07f2100a0
:100220000100200011000700000020000000e00095
:100230000200320000000200000000008c160200e4
:10024000000000000040da000000fe004440a90069
:10025000400020000000e000030032000000200009
:10026000a00188004440a800000006009101880019
:10027000800078000000eb0015003700e2804000ad
:1002800032a0b4009101ba00e280400032a0b40074
:100290009102ba00e280400032a0b4000002eb00fc
:1002a000472bde00f507b200602ce10004003a00a5
:1002b0000059eb008301e900fdff3e000400370018
:1002c0006128e100010032000082eb000400070019
:1002d0001101ba000200e000e8ff3a000000060049
:1002e0003159ba008301e9000c0032002159ba00eb
:1002f0008301e900080032000400e00003003a0036
:10030000e280400032a0b400f5ff370011d9ba00f6
:100310008301e900faff3a008100e800e180400033
:1003200032a0b400000006000040da000000fe0029
:100330000000fa00751080000410200004826200a2
:1003400004f0a7000402ea000402e9004f22de00e4
:1003500004427800044078000080fa0000000600a3
:100360000200fa00000f780064108000660262004c
:10037000e60f520003003a001e0278008410880045
:1003800003003700f40f20001e0262008410880072
:100390000080fa00000006000200fa00000f78005a
:1003a0008520a9008540a9001e027800044278003b
:1003b0006742620067426200674262000482fb009b
:1003c000670262004422dd00c6048000f5f82f00b9
:1003d0008502630004827200c404880004072000c0
:1003e0001e0262004422de0004427800674262007e
:1003f0000482fb00670262004822dd00c604800020
:10040000f58f2f008502630004827200c404880007
:100410009e027800688262004322de000442780077
:10042000614262000482fb00610262004922dd0039
:1004300066048000f5df2f008502630004827200ed
:1004400064048800040820001e0262004722de00c7
:1004500004427800614262000482fb006102620093
:100460004a22dd0066048000f5bf2f00850263008c
:1004700004827200640488000080fa000000060014
:10048000809fbe00130007008d0007000001be0022
:100490004f00be00829fbe00530207004f01be0006
:1004a00001000700000006000202b800020bb900bc
:1004b00006824200e0824b000383b8000388b90043
:1004c0008600420000804b00008042008000fd005a
:1004d000000006001600200001f0a300040039000f
:1004e000f2ff2f000192b9000010b9008100420014
:1004f0004f89de00cf89de00e4062300f5452100a8
:10050000861f7800810178000403b8000500b80058
:1005100087034000608348000418b8008703400048
:10052000068348000518b80006034000e081480033
:100530000410b80006034000838148000510b8008d
:100540008301400083014000860278004f03780059
:10055000040022008480430060814a00e081490059
:10056000ce08de004212dd00048070004e11de0075
:10057000421add00840071000100a7000603ea00b2
:1005800000f0a7000603ea0000f0a70060001000da
:10059000d11725000100e1002f003100814826001d
:1005a0000100b8004d00de00c308dd0081007000ce
:1005b000c01b20000008e10003003100f0ff2f0005
:1005c0000030b900000006000200200013002000e7
:1005d0000108b80081037800040028000122b80057
:1005e00005015100e08159000708b8005455250065
:1005f0000122b800c3aade0005014100e0814900e4
:100600000708b80034d822000122b800c7aade00cb
:1006100005015100e08159000708b800040d2000d1
:100620000122b800c7aade0005014100e0814900af
:100630000708b800240020000122b800c7aade0085
:1006400005015100e081590003b2b9000230b90040
:1006500081004200000006000100280000805000d8
:10066000814826000100b8004d00de00c308dd000f
:1006700081007000810378000109b8000308b80008
:1006800050552500000ab800c1aade00858353003a
:100690000308b80040442400000ab800c5aade00e0
:1006a000858343000308b80000682000000ab800f2
:1006b000c7aade00858353000730b900000006009a
:1006c00000027800810278000000e00010003a008b
:1006d0000200280081017800e0ff2f00cf80de00bb
:1006e0000218e70000000600f2ff270020002000ab
:1006f000cf80de000218e70000000600f0ff2f00a8
:10070000f1ff27000001eb000218e70000000600df
:100710000400780085007800889fbe001800200043
:1007200001f0a30004003900f8ff2f0001c2b90056
:100730000040b90081004200881f78000001780065
:10074000810178000300e00014003a00140020004a
:100750000220e10007003a00f0ff2f00f1ff270020
:1007600001c2b9000040b900810042004f04be0040
:1007700000000600240020000220e10007003a00eb
:10078000f0ff2f00f1ff270001c2b9000040b900bf
:10079000810042004f04be00000006008181cf00ae
:1007a0000300e00004003a000118e7000301200004
:1007b0000081cf0083014100e28151007018e10007
:1007c00005003c00708111000202de008308dd009c
:1007d0008480700002003700708151008200dd00cb
:1007e00004002800810252006118e10083003400f7
:1007f0008a9fbe008c9fbe000000220006002800d9
:10080000050343000625b8004f55de00c15ddd003d
:100810000b027500052db80000054500e0854d0070
:100820004e55de00c25ddd008b027500e0834200a4
:100830000725b8006126b9008c8545000b027800b9
:10084000052db800e1854500c1dade000000240076
:1008500006002800850343000725b8004230de006b
:1008600000054500e0854d004f55de00c15ddd000f
:100870000b027500052db80000e0230000054500bf
:10088000e0854d004f55de00c15ddd008b02750037
:10089000850343000725b8004f52de00415cdd00b0
:1008a000080272004f5cde0000002400052db80035
:1008b00000054500e0854d004f55de00c15ddd00bf
:1008c0008b02750085034300043db80008beb900e3
:1008d0008c8545004f52de00415cdd00080272004d
:1008e0004f5cde00052db80000054500e0854d0099
:1008f0004f55de00c15ddd008b02750085034300ae
:10090000043db80008beb9008c8545004f52de009a
:10091000415cdd00080272004f5cde00052db8006e
:1009200000054500e0854d004f55de00c15ddd004e
:100930008b02750085034300043db80008beb90072
:100940008c8545004f52de00415cdd0008027200dc
:10095000cf5ade00120020007018e10004003c00b5
:10096000f08011008110de000310dd00030037006d
:10097000f08051008110dd000000eb004f89de00a7
:10098000820178004fabde00860378000404b800d3
:100990000506b8008904460060854e000606b800ca
:1009a0000a054600040eb800890446000a854e0078
:1009b000050eb8000a0546000416b8000a054600f0
:1009c0008b0546004e40de00424add000400700008
:1009d000ce48de004252dd00848070004f06be002b
:1009e0004f05be004f04780001c2b9000040b900b5
:1009f000810042004f04be00000006000300e0003a
:100a00007c0034008a9fbe008c9fbe000000220044
:100a100006002800850343000725b8004f55de0077
:100a2000c15ddd000b027500052db8000005450015
:100a3000e0854d004e55de00c25ddd008b02750085
:100a4000e08342000725b8006126b9008c85450087
:100a50000b027800052cb80006044400e0844c002a
:100a6000c1cade004100dd00060028008503430006
:100a70000725b8004f55de00c15ddd000b02750093
:100a8000052db80000054500e0854d004f55de00fe
:100a9000c15ddd008b027500850343000725b800aa
:100aa0004f55de00c15ddd000b027500052db8005d
:100ab00000054500e0854d004f55de00c15ddd00bd
:100ac0008b027500850343000725b8004f52de00f6
:100ad000415cdd00080272004f5cde00052db800ad
:100ae00000054500e0854d004f55de00c15ddd008d
:100af0008b02750085034300043db80008beb900b1
:100b00008c8545004f52de00415cdd00080272001a
:100b10004f5cde00052db80000054500e0854d0066
:100b20004f55de00c15ddd008b027500850343007b
:100b3000043db80008beb9008c8545004f52de0068
:100b4000415cdd0008027200cf5ade001200200076
:100b50007018e10004003c00f08011008110de00fc
:100b60000310dd0003003700f08051008110dd002c
:100b70000000eb004f89de00820178004fabde0001
:100b8000860378000404b8000506b800890446000e
:100b900060854e000606b8000a054600040eb8003f
:100ba000890446000a854e00050eb8000a05460075
:100bb0000416b8000a0546008b0546004e40de00cc
:100bc000424add0004007000ce48de004252dd00e3
:100bd000848070004f06be004f05be004f047800b1
:100be00001c2b9000040b900810042004f04be00bc
:100bf000000006008a9fbe008c9fbe0000002400fb
:100c000006002800850343000725b8004f55de0085
:100c1000c15ddd000b027500052db8000005450023
:100c2000e0854d004f55de00c15ddd008b02750093
:100c3000850343000725b8004f55de00c15ddd0088
:100c40000b027500052db80000054500e0854d003c
:100c50004f55de00c15ddd008b027500850343004a
:100c60000725b8004f55de00c15ddd000b027500a1
:100c7000052db80000054500e0854d004f55de000c
:100c8000c15ddd008b027500850343000725b800b8
:100c90004f55de00c15ddd000b027500052db8006b
:100ca00000054500e0854d004f55de00c15ddd00cb
:100cb0008b0275000004eb00850343000725b80094
:100cc0004f52de00415cdd00080272004f5cde0026
:100cd000052db80000054500e0854d004f55de00ac
:100ce000c15ddd008b02750085034300043db80043
:100cf00008beb9008c8545004f52de00415cdd0026
:100d0000080272004f5cde00052db80000054500aa
:100d1000e0854d004f55de00c15ddd008b027500a2
:100d200085034300043db80008beb9008c8545002a
:100d30004f52de00415cdd0008027200cf5ade0037
:100d4000120020007018e10004003c00f080110047
:100d50008110de000310dd0003003700f080510039
:100d60008110dd000000eb004f89de008201780079
:100d70004fabde00860378000404b8000506b80017
:100d80008904460060854e000606b8000a05460044
:100d9000040eb800890446000a854e00050eb8000e
:100da0000a0546000416b8000a0546008b054600f1
:100db0004e40de00424add0004007000ce48de00f6
:100dc0004252dd00848070004f06be004f05be0019
:100dd0004f04780001c2b9000040b9008100420010
:100de0004f04be00000006001600200001f0a30022
:100df00004003900f6ff2f0001b2b9000030b9003d
:100e000081004200861f78004f89de00cf89de0016
:100e1000e4062300f5452100810178000403b800b1
:100e20000500b80087034000608348000418b8003c
:100e300087034000068348000518b80006034000f9
:100e4000e08148000410b800060340008381480098
:100e50000510b8008301400083014000860278003d
:100e60004f037800040022008480430060814a0020
:100e7000e0814900ce08de004212dd0004807000ef
:100e80004e11de00421add00840071000100a7004f
:100e90000603ea0000f0a70060001000d11725004b
:100ea0000100e10018003100814826000100b8006f
:100eb0004d00de00c308dd00810070008103780072
:100ec0000109b8000308b80050552500000ab80011
:100ed000c1aade00858353000308b8004044240003
:100ee000000ab800c5aade00858343000308b800e5
:100ef00000682000000ab800c7aade0085835300fe
:100f00000730b900000006000100280000805000f2
:100f1000814826000100b8004d00de00c308dd0056
:100f200081007000c01b20000008e10003003100b8
:100f3000f0ff2f000030b900000006000200200082
:100f4000130020000108b800810378000400280085
:100f50000122b80005015100e08159000708b800de
:100f6000545525000122b800c3aade000501410046
:100f7000e08149000708b80034d822000122b800f7
:100f8000c7aade0005015100e08159000708b8003a
:100f9000040d20000122b800c7aade0005014100af
:100fa000e08149000708b800240020000122b800b1
:100fb000c7aade0005015100e081590003b2b90063
:100fc0000230b90081004200000006008400a90040
:100fd000e7026000a604800084ff2f000402630083
:100fe00005027200a4048800680360004333de0039
:100ff0006103630065048000e4ff2f0084826200c7
:101000008682720065048800700060004400de0083
:10101000610060001504800004826200000272001a
:10102000140488000000060086e0a900e7026000c2
:10103000cc2add00f6048000f4ff280004026300df
:1010400005027200f4048800e8026000c32ade0092
:10105000e1826200c72add00740480000470a100f0
:101060000502720074048800700060004400de0015
:10107000610060004200dd00140480000420a10033
:101080000002720014048800000006008460a900b9
:10109000e7026000cc2add00a6048000f4ff2800ef
:1010a0000402630005027200a40488006800600066
:1010b000640480000430a10000027200640488000f
:1010c0000000060084c0a900e7026000c82add0015
:1010d000b6048000f48f2f00040263000502720042
:1010e000b4048800680060004300de006100600016
:1010f0004600dd00640480000460a100000272006c
:1011000064048800000006000021ef001108880038
:1011100020088800000006000621ef006108880012
:10112000800888001061a9000000060000088800ff
:1011300000000600300888000000060003f0a2004e
:10114000889fbe008a9fbe008c1f7800fe000700ab
:10115000050133006450e1004f0032006420e100db
:101160005200320003826c0007003b000905d000ea
:101170000306d000820f54000c065d000200390007
:10118000020032008901780003067800858255004c
:1011900004003d000003fd008103fd008502ea001c
:1011a0008b854200840f720002003b00600010003b
:1011b000e08018006011b8000005eb007a28e1001b
:1011c0000a00390006007800c75ddd00f707b200ad
:1011d000878075002d003700828171000a01780038
:1011e000610560008180d1000080d3008502e900a4
:1011f000f9ff3b00060440008784480002003b00e2
:1012000060041400e0841c000988a3000700320079
:101210008a81710082817100610164008904d100ba
:101220000884d3008b05e800170037000978a30075
:1012300013003a000b00e000130034008b05e900b6
:101240000804440089844c000a4474000978a3000f
:101250000d003a000b00e000070034008b05e900a8
:101260000804440089844c0001003a000b0020006f
:101270000978a300f7ff32000001eb0002003700fd
:10128000828171000a017800740007000cf0a70049
:1012900001f0a000bd0037006420e10002003a0028
:1012a000838f6c00bd0033000801be000200be0049
:1012b000b6003700889fbe008a9fbe008c1f780052
:1012c000a1000700a800330003866c006450e10011
:1012d0002e0032006420e100330032006150e10052
:1012e0002f0032006120e100310032008585550079
:1012f000eb07b000090020000804200005003700bb
:101300000804440089844c000a00310006034300ad
:1013100087834b000001530081815b00f8ff33009d
:101320000203be000800a0000804440089844c00a9
:10133000f6ff3900c639dd00830173000100320079
:10134000130020008904d1000884d3000998a30069
:10135000050032000800a7000300a0008904d100a6
:101360000884d3008b05e8008904d1000884d300e9
:101370000001eb000281d2003800070001f0a1005b
:101380000cf0a70001f0a000800037006420e1000d
:10139000820032000801be000200be00f7ff3700e5
:1013a0006120e1007d0032006000b800f3ff3700eb
:1013b0000000200001f82700f0ff37001400200093
:1013c000ad0037000001be004a0007000470a7000e
:1013d00003f0a1006509b100160032000d003500d0
:1013e0006828e10006003500f0ff2f00f1ff27001c
:1013f0000300e00013003b0001002800000005008e
:1014000000004000818048008502e900fcff3a00ae
:1014100008003700f88f420002003c008000eb001b
:10142000000005008100d1000080d3008502e800a3
:10143000fcff3a000300e00002003b0060001000e7
:10144000e0801800000006004f89de00820178006d
:10145000a40037006011b800b200370081002000fe
:10146000618055000b003d000b00200061fe2f0045
:101470000100e1001d0034008281710061016400ff
:101480008904d1000884d3000000e800faff3a0084
:101490007100200061006400030070000200600021
:1014a0000900320061044400e0844c000988a50072
:1014b000050032008b05e8006808e10002003a00f0
:1014c0008904d1000884d300f20f20000258e10003
:1014d00005003d00c75ddd00f907b2008980750099
:1014e00008007800000006000bf827008b00780049
:1014f00000000500c70ade00f107b200f50fb200d8
:1015000008003200e1cf4200020032000170a0006a
:1015100024000500810f700001003200040805005e
:1015200044000500810f700002003a00140005001d
:101530008502e9000000400081c04800fcff3b003c
:101540000170a000240005000004be00e9ff0700b0
:101550000003be000405be000200be00e5ff070058
:10156000844f7500000006000200be006450e100d8
:10157000050036006420e100020036000968a3007f
:1015800001003a000800be000160a0004f0678008c
:101590004f05be004f04be0000000600f0ff2f0004
:1015a000f1ff2700f9ff3700889fbe008a9fbe0029
:1015b0008c1f7800e4ff0700ebff330003866c000c
:1015c0006450e100240032006420e1002700320072
:1015d0006150e100220032006120e1002100320070
:1015e0008b854200eb07b1000134b800003ab80027
:1015f0000804420089844a00013ab8000030b8006b
:101600008880400009014a000400330000004000c7
:1016100081804800020149008b05e900c909dd000d
:10162000830170000100320013002000c814de00a6
:101630004814dd004709de001200b200c808de00d1
:101640000884700085ff070001f0a1000cf0a700de
:1016500001f0a000cdff37006120e100cfff320094
:101660000801be000200be00f7ff37006150e10034
:10167000fcff3a00c9ff3700889fbe008a9fbe006a
:10168000841f7800b0ff07004f007800110033007e
:10169000f0ff2f00838f6c0006003b0004056500ff
:1016a0000a00a7000800370009f0a600100020007b
:1016b00008003700820f5400838f5c00030039005c
:1016c0001000200001003e000000200009f0a700eb
:1016d0000000ea004f05be004f04be000000e0001d
:1016e00000000600881f7800030478000300e00073
:1016f00007003d0060001000e08018006001190044
:10170000e081190002003b0001f02d0003003700ca
:101710000400070008f0a70001f0a0004f047800c3
:1017200000000600889fbe008a9fbe0000827000f5
:101730000402710004827100260032000004be0021
:101740000200be006011b8006b0920009502200065
:101750000182cf000a0039000541b1000082cf00ac
:10176000070039000541b1000982cf0004003900ab
:101770000541b1000882cf00010039000541b100e8
:1017800005425200120032000a003b0082817100c3
:10179000610164008100d1000080d3008984d300fe
:1017a0000884d3008b05e8000442e800f7ff3a0004
:1017b000070037000804440089844c0000004800fa
:1017c000818048008b05e9000442e900f9ff3a00f6
:1017d00022ff07004f05be004f04be0000000600b8
:020000040000fa
:0817e00035fa00008e3c000008
:020000040000fa
:1017e8000200fa00000f78000002eb00b442880003
:1017f80000000000b44280009e0f5200fdff36003a
:101808000080fa00000006000200fa00004f78008d
:1018180000000000958320009542780074c3b3004f
:1018280084cf5200fbff3200140280000450a00055
:101838000460a0000470a0001402880094832000b3
:1018480014427800e04f520005003a0075108000fd
:101858000420200004826200e00f52001d003200c4
:1018680074832000144278000483fb001e42780031
:101878000580200085024300844a78007483200094
:10188800144278000442e8000002fd0037e8b7007f
:101898000002fd00758320009542780074c3b300f0
:1018a80084cf520004003a000042eb000002fd0021
:1018b80037e8b7000002fd00948320001442780046
:1018c8000442e8000002fd0039e8b7000002fd000c
:1018d800030037009e4278000582fb0084108800d0
:1018e800140280000450a1000460a1000470a1004b
:1018f800140288000080fa00000006000200fa00c6
:10190800000f78001e02780048a2de00044278002a
:1019180004407800bcff07001e02780004427800eb
:1019280004407800b8ff07000080fa0000000600b5
:101938000000fa00a8e2a800c6e2a900d242a90065
:10194800d882a900d8a2a900dec2a900d862a9003d
:10195800dea2a800de22a8000082eb004415880061
:1019680094050700620507000002eb00c4428800e6
:101978000002eb00d44288000042eb00040078002b
:1019880080e8b700d0fe2f008efd0700c0fe2f00b4
:10199800a3fd07007b0507000042eb000400780068
:1019a800aae8b7000002eb00744388007443800083
:1019b8006443880064438000544388005443800093
:1019c8004443880044438000344388003443800003
:1019d80024438800cae2a800dc62a900dc82a900ce
:1019e800dca2a900e2c2a900d642a900401f20003b
:1019f8007bff0700dc82a800dca2a800e2c2a800e6
:101a0800d642a800401f200075ff0700dc82a9000d
:101a1800dca2a900e2c2a900d642a900401f20000a
:101a28006fff0700dc82a800dca2a800e2c2a800c1
:101a3800d642a8000042eb000400780084e8b70012
:101a480044882000144278000400780083e8b70036
:101a580034882000144278000400780082e8b70037
:101a68000002eb000443880004438000f44288002d
:101a7800f4428000e44288000042eb000400780051
:101a880081e8b7000002eb00144388000042eb0035
:101a98000400780087e8b7007488200014427800b2
:101aa8000400780086e8b7006488200014427800b3
:101ab8000400780085e8b7000042eb0004007800d5
:101ac8008ae8b700a488200014427800040078004f
:101ad80089e8b70094882000144278000400780050
:101ae80088e8b7000042eb00040078008de8b700f2
:101af800d488200014427800040078008ce8b700ed
:101b0800c488200014427800040078008be8b700ed
:101b18006022b800f444880005458800f444800039
:101b280005458000d4448800e5448800d4448000fa
:101b3800e5448000b4448800c5448800b44480006b
:101b4800c544800094448800a544880094448000db
:101b5800a544800074448800854488006022b80049
:101b68003445880045458800344580004545800057
:101b780014458800254588000042eb0004007800e1
:101b880085e8b7000080fa0000000600841f78008e
:101b98003400f80004002000a40188000000fa00c6
:101ba8008460a900c44280000402e800c44288009e
:101bb8000080fa003400f9004f0278000040060067
:101bc800849fbe003400f80004002000a4018800af
:101bd8000000fa008540a900948320001442780090
:101be800e04f5200270032001d0037009483200088
:101bf800144278000442e9000002fd0039e8b70009
:101c08000002fd0084832000144278008482fb00d7
:101c18000480200004824200144278000402fb0081
:101c28008410880084832000144278000442e8006d
:101c38000002fd0038e8b7000002fd00858320009f
:101c48009542780074c3b30084cf520004003a0070
:101c58000042eb000002fd0038e8b7000002fd007a
:101c68009483200014427800e04f520005003200af
:101c7800751080000420200004826200e00f5200ea
:101c8800daff32000080fa003400f9004f02be008b
:101c9800004006003600f800809fbe00829fbe000c
:101ca800849fbe00869fbe003400f800000020001c
:101cb800a00188000000fa008520a9009410800087
:101cc800044278000002fd00c0e8b7000002fd00f1
:101cd80084842000144278000002fd0049e8b7001f
:101ce8000002fd0074842000144278000002fd0008
:101cf80048e8b7000002fd00048c20001442780078
:101d08000002fd0047e8b7000002fd0075842000ce
:101d18009542780034c5b30084cf52000f003a00d2
:101d2800858420009542780034c5b30084cf5200e2
:101d38000a003a00958420009542780034c5b30023
:101d480084cf520005003a0014c0b3000002fd0021
:101d5800aae8b7000002fd00dc62a8007584200034
:101d68009542780014c5b30084cf52000f003a00a2
:101d7800858420009542780014c5b30084cf5200b2
:101d88000a003a00958420009542780014c5b300f3
:101d980084cf520005003a00dc62a900dc82a90069
:101da800dca2a900e2c2a900d642a90095842000bd
:101db80095427800d4c4b30084cf520010003a0092
:101dc800858420009542780064c4b30084cf520013
:101dd8000b003a00758420009542780054c4b30083
:101de80084cf520006003a00d445800004007800f1
:101df800c2fe0700e445800004007800bffe07002b
:101e08000080fa003400f9004f03be004f02be0004
:101e18004f01be004f00be003600f900004006002a
:101e2800841f78003400f80004002000a401880012
:101e38000000fa008400a900c4428000d44288004f
:101e480014c0b3000400780080e8b7000080fa00ee
:101e58003400f9004f02780000400600849fbe005d
:101e68003400f80004002000a40188000000fa00f3
:101e78008700a900c41080004322de00614262008e
:101e880084427800c41080004222de006142620071
:101e980004c2720084427800c41080000402d10099
:101ea8006142620004c272000002fd00bee8b70091
:101eb8000002fd00e4108000044278000002fd00ea
:101ec800c1e8b7000002fd00148c2000144278001d
:101ed8000482fb0075072000850f520007003200be
:101ee800b50d2000850f520019003200550520005d
:101ef800850f52002b0032003e003700dca2a900fb
:101f0800c48a200014427800e04f520009003a00c9
:101f180014c0b3000002fd00ace8b7000002fd00e9
:101f2800c4428000b4458800b445800084458800d8
:101f380030003700c4428000b445880014c0b300a4
:101f48000002fd0083e8b7000002fd002900370009
:101f5800e2c2a900d48a200014427800e04f52005f
:101f680009003a0014c0b3000002fd00ade8b70054
:101f78000002fd00c4428000c4458800c4458000ba
:101f8800944588001b003700c4428000c44588007f
:101f980014c0b3000002fd0084e8b7000002fd0091
:101fa80014003700dc82a900b48a200014427800ab
:101fb800e04f520009003a0014c0b3000002fd00cf
:101fc800abe8b7000002fd00c4428000a4458800c9
:101fd800a44580007445880006003700c44280008c
:101fe800a445880014c0b3000400780082e8b70054
:101ff800000000001822a9000080fa003400f9004f
:102008004f02be0000400600841f78003400f8002c
:1020180004002000a40188000000fa000002eb0080
:102028003408880084c0a900b44280000402e80093
:10203800b44288000080fa003400f9004f027800aa
:10204800004006000000fa0000000000b6f8070093
:1020580000427800e04f5200fcff3a00d000200018
:10206800bdf8070000000000aff807000042780044
:10207800e04f5200fcff3a00a0002000b6f807002d
:102088000080fa00000006000800fa0030079800f7
:102098003e029000e00f520005003d00d0c2b300a0
:1020a800d9fd07003e0290000402ea0034079800b8
:1020b800be029000a4002000809fbe00110009000d
:1020c8008402d80080027800010278004f00be0028
:1020d800044f7800be029000a4002000809fbe003c
:1020e800110009008402d8000002780081027800fb
:1020f8004f00be0034079800be029000a4002000e4
:10210800809fbe00110009008402d8008002780078
:10211800010278004f00be0014479800be029000ec
:10212800a4002000809fbe00110009008402d8008e
:1021380000027800810278004f00be003407980042
:10214800be029000a4002000809fbe00110009007c
:102158008402d80080027800010278004f00be0097
:1021680024479800be029000a4002000809fbe0073
:10217800110009008402d80000027800810278006a
:102188004f00be0034079800be029000a400200053
:10219800809fbe00110009008402d80080027800e8
:1021a800010278004f00be0034479800be0290003c
:1021b800a4002000809fbe00110009008402d800fe
:1021c80000027800810278004f00be0034079800b2
:1021d800be029000a4002000809fbe0011000900ec
:1021e8008402d80080027800010278004f00be0007
:1021f80044479800be029000a4002000809fbe00c3
:10220800110009008402d8000002780081027800d9
:102218004f00be00340798000000000042f8070095
:1022280000427800e04f5200fcff3a004e42900016
:102238000443b0000440780073fd0700000000006c
:1022480039f8070000427800e04f5200fcff3a00de
:102258003e4290000443b000044078006afd070045
:102268000000000030f8070000427800e04f5200fc
:10227800fcff3a002e4290000443b000044078006e
:1022880061fd07000000000027f807000042780001
:10229800e04f5200fcff3a001e4290000443b00099
:1022a8000440780058fd0700000000001ef80700f1
:1022b80000427800e04f5200fcff3a0005c3b3002b
:1022c8001ec24200044078004ffd07000080fa005b
:1022d800000006000200fa000002eb00040f78007c
:1022e8002488200014427800e04f52000c0032008d
:1022f80075458000a4458000048242000402d10094
:1023080054438800544380002443880014c0b30019
:102318000002fd008be8b7000002fd001e00370038
:10232800b48a200014427800e14f52001a003a00a3
:102338000002eb00040f7800060037001e0fe800cb
:102348001e027800e20f520007003e001000200035
:1023580023fd07002488200014427800e04f520033
:10236800f6ff3200010037000000000075458000cc
:10237800a4458000048242000402d100544388002e
:10238800544380002443880014c0b3000002fd00b9
:102398008be8b7000002fd00348820001442780062
:1023a800e04f52000c00320085458000b4458000a3
:1023b800048242000402d100644388006443800020
:1023c8003443880014c0b3000002fd008ce8b70055
:1023d8000002fd001e003700c48a20001442780065
:1023e800e14f52001a003a000002eb00040f780097
:1023f800060037001e0fe8001e027800e20f5200a8
:1024080007003e0010002000f5fc0700348820007b
:1024180014427800e04f5200f6ff32000100370006
:102428000000000085458000b44580000482420019
:102438000402d10064438800644380003443880068
:1024480014c0b3000002fd008ce8b7000002fd00d4
:102458004488200014427800e04f52000c003200fb
:1024680095458000c4458000048242000402d100e2
:1024780074438800744380004443880014c0b30048
:102488000002fd008de8b7000002fd001d003700c6
:10249800d48a200014427800e14f520019003a0013
:1024a8000002eb00040f7800060037001e0fe8005a
:1024b8001e027800e20f520007003e0010002000c4
:1024c800c7fc07004488200014427800e04f5200ff
:1024d800f6ff32000100370000000000954580003b
:1024e800c4458000048242000402d100744388007d
:1024f800744380004443880014c0b300040078008b
:102508008de8b7000080fa00000006000000fa001d
:102518000042eb000400780084e8b70044882000fb
:10252800144278000400780083e8b700348820005b
:10253800144278000400780082e8b7000042eb00fb
:1025480004007800ade8b700d48a2000144278006f
:1025580004007800ace8b700c48a20001442780070
:1025680004007800abe8b7000042eb0004007800f4
:1025780080e8b7000080fa00000006000000fa00ba
:10258800b488200014427800e14f520008003a0055
:102598000000000064f7070000427800e04f520096
:1025a800fcff3a00100320006bf707000700370014
:1025b800000000005cf7070000427800e04f52007e
:1025c800fcff3a005003200063f70700c48820008e
:1025d80014427800e14f520008003a000000000061
:1025e80051f7070000427800e04f5200fcff3a0024
:1025f8002003200058f707000700370000000000fc
:1026080049f7070000427800e04f5200fcff3a000b
:102618006003200050f70700d48820001442780097
:10262800e14f520008003a00000000003ef70700a2
:1026380000427800e04f5200fcff3a0030032000cf
:1026480045f70700070037000000000036f70700cd
:1026580000427800e04f5200fcff3a00700320006f
:102668003df70700000220003bf7070000022000aa
:1026780039f707000080fa00000006000800fa0099
:1026880020079800310798000200200003782400f2
:102698002e009000be009000c1fb07000002be00a3
:1026a8000400be0045fb07000002be000400be0097
:1026b80071f707000002be00048fbe001e00be00b6
:1026c8005ffb07000002be00020020000378240020
:1026d8000400be00f5fa07000002be000400be00b8
:1026e8000080fa00000006002000fa00889fbe0063
:1026f8008a9fbe00600f9800710f980055438000b4
:102708002443800004824200050020000400be002b
:102718004efb07000004be00d442800005002000e4
:102728000400be0049fb07000002be000401be0011
:102738000000200041332400dcfa07000002be003c
:102748000401be000800be0095fb07000002be00a1
:10275800b4448800c5448800654380003443800041
:1027680004824200050020000400be0037fb070079
:102778000004be00d4428000050020000400be0012
:1027880032fb07000002be000401be00000020006a
:1027980041332400c5fa07000002be000401be0050
:1027a8000800be007efb07000002be00d44488007b
:1027b800e544880075438000444380000482420059
:1027c800050020000400be0020fb07000004be0036
:1027d800d4428000050020000400be001bfb070057
:1027e8000002be000401be000000200041332400a6
:1027f800aefa07000002be000401be000800be00d9
:1028080067fb07000002be00f44488000545880005
:10281800d6448000e7448000b4448000c54480006a
:102828000401be000600be0042fa07000002be0016
:10283800744488008544880074448000854480007e
:1028480018c0b3006011b8000400be00d9fa070030
:1028580000027800e00f5200010035000044eb0050
:10286800e04f540008003200744480008544800022
:1028780002002000433b24000400be002efa07009b
:102888000002be00020037007444800085448000c6
:102898007444880085448800b6448000c74480009a
:1028a800f4448000054580000401be000600be0017
:1028b80020fa07000002be0094448800a54488005e
:1028c80094448000a544800018c0b3006011b8008b
:1028d8000400be00b7fa070000027800e00f5200bb
:1028e800010035000044eb00e04f540008003200be
:1028f80094448000a544800002002000433b24004b
:102908000400be000cfa07000002be0002003700f7
:1029180094448000a544800094448800a54488001d
:102928007644800087448000845f8400955f84003b
:102938000401be000600be0019fb07000002be002d
:102948000400be004dff07000002be00048fbe0059
:1029580096448000a7448000845f8400955f8400cb
:102968000401be000600be000dfb07000002be0009
:102978000400be0041ff07000002be0024079800c3
:10298800350798001e02be000401be0000002800a2
:10299800b14b240045fa07000002be000401be0046
:1029a8000000240031402400e2f907000002be00c4
:1029b80064079800750798001e02be000401be0057
:1029c800000024003140240038fa07000002be004d
:1029d80002002800b34b24000400be00d6f907000b
:1029e8000002be00240f9800350f98002e029000b8
:1029f800be0290000401be0000002800b14b240074
:102a08002afa07000002be00020024003340240016
:102a18000400be00c7f907000002be00040f9800ba
:102a2800150f98002e029000be0290000401be000f
:102a380000002400314024001cfa07000002be00f8
:102a480002002800b34b24000400be00baf90700b6
:102a58000002be00440f9800550f98004e0b9000de
:102a6800de0b90002e0a9000be0a90000401be0002
:102a78000600be00aff907000002be00048fbe00ca
:102a88006e039000fe0390000e0a90009e0a9000cc
:102a98000401be000600be00a6f907000002be0041
:102aa80024079800350798006e039000fe039000f5
:102ab8004e0a9000de0a90000401be000600be0027
:102ac800b7fa07000002be000404be000e0b900017
:102ad8009e0b90002e0a9000be0a90000401be00d2
:102ae8000600be00aefa07000002be000401be00e8
:102af8000800be008ff907000002be000401be00f6
:102b08000400be008cf907000002be000404be00e9
:102b18001e03be001e02be000401be000600be0069
:102b28009ffa07000002be000405be002e039000b5
:102b3800be0390002e029000be0290000401be0069
:102b48000600be0096fa07000002be000401be009f
:102b58000a00be0078f907000002be000401be00aa
:102b68000800be00d1f907000002be004407980023
:102b7800550798001e03be004e029000de0290002a
:102b88000401be000600be0085fa07000002be0070
:102b9800048fbe002e039000be0390004e029000ea
:102ba800de0290000401be000600be007cfa0700a9
:102bb8000002be0024079800350798001e02be00d8
:102bc80002002000a34724000400be005af90700b1
:102bd8000002be00048fbe001e02be000400be003c
:102be800f6f907000002be006e0b9000048bbe00d1
:102bf8002e029000be0290000400be00eff907000c
:102c08000002be007e0b9000048bbe004f05be0084
:102c18004f04be000080fa00000006000000fa0021
:102c2800b488200014427800e14f520008003a00ae
:102c3800c488200014427800e14f520004003a0092
:102c4800d488200014427800e14f52000d00320071
:102c580080c5b300ecfa070000c0eb00eafa0700f1
:102c680000c0eb00e8fa070090c5b300e6fa0700d9
:102c780000c0eb00e4fa070000c0eb00e2fa07002e
:102c88002100370080c5b300dffa0700500020009c
:102c9800d3fa07001645800027458000a44120008c
:102ca800050020000602420087824a001445880079
:102cb80025458800144580002545800004027800d9
:102cc80004007800f0fc070000c2b300cefa070049
:102cd80000c2b300ccfa070050002000c0fa070079
:102ce80090c5b300c8fa070050002000bcfa0700de
:102cf80034458000454580000402780004007800cf
:102d0800e1fc0700cffc07000080fa000000060085
:102d18000000fa0000000000153a800004022000bc
:102d280004826200e00f5200fbff320000fb070044
:102d380000000000a48a200014427800e04f5200ee
:102d4800fcff3200dc62a8008200070000000000df
:102d58000488200014427800e04f5200fcff320043
:102d68005cfd070005e1a9000000eb00edf8070095
:102d78000002eb00c4428800e4fd0700b48820008c
:102d880014427800e14f52001d003a00c488200028
:102d980014427800e14f520019003a00d48820000c
:102da80014427800e14f520015003a00618a200071
:102db800208a20004cfe0700140280000450a00066
:102dc8000460a0000470a00014028800144580006c
:102dd8002545800004027800d445880034458000e9
:102de8004545800004027800e4458800140280000c
:102df8000450a1000460a1000470a100140288001e
:102e08000042eb000002fd008de8b7000002fd0063
:102e1800d4882000144278000002fd008ce8b70036
:102e28000002fd00c4882000144278000002fd0062
:102e38008be8b7000002fd000002eb007443880035
:102e480074438000644388006443800054438800ce
:102e5800544380004443880044438000344388003e
:102e6800344380002443880005e1a80000000000e6
:102e78000488200014427800e04f5200fcff320022
:102e88000002eb00c4428800a0fd0700e2c2a800cf
:102e9800141780004622de00614262000482fb00b3
:102ea800610262004522dd00e6168000f5fd2f0074
:102eb8008502630004827200e4168800e41680002c
:102ec8004522de00614262000482fb00610262006a
:102ed8004422dd00e6168000f5fe2f00850263001f
:102ee80004827200e41688000000000098ff370092
:102ef8000000fa00f4032000f41088008f00a800f6
:102f0800c41080000460a1000470a100c4108800ef
:102f180017e2a8000080fa00000006000200fa008c
:102f2800000f7800b410800066026200e60f5200bd
:102f380003003a001e027800d4108800030037000e
:102f4800f40f20001e026200d41088000080fa00ee
:102f5800000006000200fa0084072000040f780031
:102f6800c0ff2f0047f807000000eb006df80700ce
:102f78009e00780090f82d0061f807000080fa00a4
:102f8800000006000200fa0034332700040f78001e
:102f9800a0ff2f0049f807000000eb0063f80700c6
:102fa8009e007800d0f82d0059f807000080fa003c
:102fb800000006000000fa00f4002000a4108800b9
:102fc8000d42a8008d20a8008d40a8000fe2a8009f
:102fd800741080000460a1000470a10074108800bf
:102fe8000de2a8000f42a8000080fa0000000600c9
:020000040000fa
:102ff80000080000c000000000000000c008000039
:1030080006000000020000000000000000000000b0
:0430180000000000b4
:020000040000fa
:0200000401f009
:04000000f6bf000047
:020000040000fa
:0200000401f009
:04000400ff7f00007a
:00000001FF
